{
  "contractName": "tCO2",
  "abi": [
    {
      "inputs": [],
      "stateMutability": "nonpayable",
      "type": "constructor"
    },
    {
      "anonymous": false,
      "inputs": [
        {
          "indexed": true,
          "internalType": "address",
          "name": "owner",
          "type": "address"
        },
        {
          "indexed": true,
          "internalType": "address",
          "name": "approved",
          "type": "address"
        },
        {
          "indexed": true,
          "internalType": "uint256",
          "name": "tokenId",
          "type": "uint256"
        }
      ],
      "name": "Approval",
      "type": "event"
    },
    {
      "anonymous": false,
      "inputs": [
        {
          "indexed": true,
          "internalType": "address",
          "name": "owner",
          "type": "address"
        },
        {
          "indexed": true,
          "internalType": "address",
          "name": "operator",
          "type": "address"
        },
        {
          "indexed": false,
          "internalType": "bool",
          "name": "approved",
          "type": "bool"
        }
      ],
      "name": "ApprovalForAll",
      "type": "event"
    },
    {
      "anonymous": false,
      "inputs": [
        {
          "indexed": true,
          "internalType": "address",
          "name": "from",
          "type": "address"
        },
        {
          "indexed": true,
          "internalType": "address",
          "name": "to",
          "type": "address"
        },
        {
          "indexed": true,
          "internalType": "uint256",
          "name": "tokenId",
          "type": "uint256"
        }
      ],
      "name": "Transfer",
      "type": "event"
    },
    {
      "inputs": [
        {
          "internalType": "address",
          "name": "to",
          "type": "address"
        },
        {
          "internalType": "uint256",
          "name": "tokenId",
          "type": "uint256"
        }
      ],
      "name": "approve",
      "outputs": [],
      "stateMutability": "nonpayable",
      "type": "function"
    },
    {
      "inputs": [
        {
          "internalType": "address",
          "name": "owner",
          "type": "address"
        }
      ],
      "name": "balanceOf",
      "outputs": [
        {
          "internalType": "uint256",
          "name": "",
          "type": "uint256"
        }
      ],
      "stateMutability": "view",
      "type": "function"
    },
    {
      "inputs": [],
      "name": "d",
      "outputs": [
        {
          "internalType": "uint256",
          "name": "",
          "type": "uint256"
        }
      ],
      "stateMutability": "view",
      "type": "function"
    },
    {
      "inputs": [
        {
          "internalType": "uint256",
          "name": "tokenId",
          "type": "uint256"
        }
      ],
      "name": "getApproved",
      "outputs": [
        {
          "internalType": "address",
          "name": "",
          "type": "address"
        }
      ],
      "stateMutability": "view",
      "type": "function"
    },
    {
      "inputs": [
        {
          "internalType": "address",
          "name": "owner",
          "type": "address"
        },
        {
          "internalType": "address",
          "name": "operator",
          "type": "address"
        }
      ],
      "name": "isApprovedForAll",
      "outputs": [
        {
          "internalType": "bool",
          "name": "",
          "type": "bool"
        }
      ],
      "stateMutability": "view",
      "type": "function"
    },
    {
      "inputs": [],
      "name": "name",
      "outputs": [
        {
          "internalType": "string",
          "name": "",
          "type": "string"
        }
      ],
      "stateMutability": "view",
      "type": "function"
    },
    {
      "inputs": [
        {
          "internalType": "uint256",
          "name": "tokenId",
          "type": "uint256"
        }
      ],
      "name": "ownerOf",
      "outputs": [
        {
          "internalType": "address",
          "name": "",
          "type": "address"
        }
      ],
      "stateMutability": "view",
      "type": "function"
    },
    {
      "inputs": [
        {
          "internalType": "uint256",
          "name": "",
          "type": "uint256"
        }
      ],
      "name": "projects",
      "outputs": [
        {
          "internalType": "uint256",
          "name": "id",
          "type": "uint256"
        },
        {
          "internalType": "string",
          "name": "name",
          "type": "string"
        },
        {
          "internalType": "bytes",
          "name": "desc",
          "type": "bytes"
        },
        {
          "internalType": "uint256",
          "name": "t",
          "type": "uint256"
        },
        {
          "internalType": "bool",
          "name": "a",
          "type": "bool"
        }
      ],
      "stateMutability": "view",
      "type": "function"
    },
    {
      "inputs": [
        {
          "internalType": "address",
          "name": "from",
          "type": "address"
        },
        {
          "internalType": "address",
          "name": "to",
          "type": "address"
        },
        {
          "internalType": "uint256",
          "name": "tokenId",
          "type": "uint256"
        }
      ],
      "name": "safeTransferFrom",
      "outputs": [],
      "stateMutability": "nonpayable",
      "type": "function"
    },
    {
      "inputs": [
        {
          "internalType": "address",
          "name": "from",
          "type": "address"
        },
        {
          "internalType": "address",
          "name": "to",
          "type": "address"
        },
        {
          "internalType": "uint256",
          "name": "tokenId",
          "type": "uint256"
        },
        {
          "internalType": "bytes",
          "name": "data",
          "type": "bytes"
        }
      ],
      "name": "safeTransferFrom",
      "outputs": [],
      "stateMutability": "nonpayable",
      "type": "function"
    },
    {
      "inputs": [
        {
          "internalType": "address",
          "name": "operator",
          "type": "address"
        },
        {
          "internalType": "bool",
          "name": "approved",
          "type": "bool"
        }
      ],
      "name": "setApprovalForAll",
      "outputs": [],
      "stateMutability": "nonpayable",
      "type": "function"
    },
    {
      "inputs": [
        {
          "internalType": "bytes4",
          "name": "interfaceId",
          "type": "bytes4"
        }
      ],
      "name": "supportsInterface",
      "outputs": [
        {
          "internalType": "bool",
          "name": "",
          "type": "bool"
        }
      ],
      "stateMutability": "view",
      "type": "function"
    },
    {
      "inputs": [],
      "name": "symbol",
      "outputs": [
        {
          "internalType": "string",
          "name": "",
          "type": "string"
        }
      ],
      "stateMutability": "view",
      "type": "function"
    },
    {
      "inputs": [
        {
          "internalType": "uint256",
          "name": "tokenId",
          "type": "uint256"
        }
      ],
      "name": "tokenURI",
      "outputs": [
        {
          "internalType": "string",
          "name": "",
          "type": "string"
        }
      ],
      "stateMutability": "view",
      "type": "function"
    },
    {
      "inputs": [
        {
          "internalType": "uint256",
          "name": "",
          "type": "uint256"
        },
        {
          "internalType": "uint256",
          "name": "",
          "type": "uint256"
        }
      ],
      "name": "topics",
      "outputs": [
        {
          "internalType": "uint256",
          "name": "id",
          "type": "uint256"
        },
        {
          "internalType": "uint256",
          "name": "pid",
          "type": "uint256"
        },
        {
          "internalType": "string",
          "name": "name",
          "type": "string"
        },
        {
          "internalType": "bytes",
          "name": "desc",
          "type": "bytes"
        }
      ],
      "stateMutability": "view",
      "type": "function"
    },
    {
      "inputs": [
        {
          "internalType": "address",
          "name": "from",
          "type": "address"
        },
        {
          "internalType": "address",
          "name": "to",
          "type": "address"
        },
        {
          "internalType": "uint256",
          "name": "tokenId",
          "type": "uint256"
        }
      ],
      "name": "transferFrom",
      "outputs": [],
      "stateMutability": "nonpayable",
      "type": "function"
    },
    {
      "inputs": [
        {
          "internalType": "address",
          "name": "_a",
          "type": "address"
        }
      ],
      "name": "makeA",
      "outputs": [
        {
          "internalType": "bool",
          "name": "",
          "type": "bool"
        }
      ],
      "stateMutability": "nonpayable",
      "type": "function"
    },
    {
      "inputs": [
        {
          "internalType": "string",
          "name": "_name",
          "type": "string"
        },
        {
          "internalType": "string",
          "name": "_desc",
          "type": "string"
        }
      ],
      "name": "addProject",
      "outputs": [
        {
          "internalType": "bool",
          "name": "",
          "type": "bool"
        }
      ],
      "stateMutability": "nonpayable",
      "type": "function"
    },
    {
      "inputs": [
        {
          "internalType": "uint256",
          "name": "_p",
          "type": "uint256"
        },
        {
          "internalType": "string",
          "name": "_name",
          "type": "string"
        },
        {
          "internalType": "string",
          "name": "_desc",
          "type": "string"
        }
      ],
      "name": "addTopic",
      "outputs": [
        {
          "internalType": "bool",
          "name": "",
          "type": "bool"
        }
      ],
      "stateMutability": "nonpayable",
      "type": "function"
    },
    {
      "inputs": [
        {
          "internalType": "uint256",
          "name": "_project",
          "type": "uint256"
        },
        {
          "internalType": "uint256",
          "name": "topic",
          "type": "uint256"
        }
      ],
      "name": "coinMint",
      "outputs": [],
      "stateMutability": "payable",
      "type": "function"
    },
    {
      "inputs": [
        {
          "internalType": "uint256",
          "name": "_project",
          "type": "uint256"
        },
        {
          "internalType": "uint256",
          "name": "_topic",
          "type": "uint256"
        },
        {
          "internalType": "address",
          "name": "_erc",
          "type": "address"
        }
      ],
      "name": "tokenMint",
      "outputs": [],
      "stateMutability": "nonpayable",
      "type": "function"
    },
    {
      "inputs": [
        {
          "internalType": "uint256",
          "name": "_project",
          "type": "uint256"
        },
        {
          "internalType": "uint256",
          "name": "topic",
          "type": "uint256"
        }
      ],
      "name": "aMint",
      "outputs": [],
      "stateMutability": "nonpayable",
      "type": "function"
    }
  ],
  "bytecode": "0x60806040523480156200001157600080fd5b506040518060400160405280601681526020017f546f6b656e697a656420436172626f6e204173736574000000000000000000008152506040518060400160405280600481526020017f74434f320000000000000000000000000000000000000000000000000000000081525081600090816200008f9190620003d2565b508060019081620000a19190620003d2565b50505033600660006101000a81548173ffffffffffffffffffffffffffffffffffffffff021916908373ffffffffffffffffffffffffffffffffffffffff160217905550620000f56200015060201b60201c565b600d819055506001600b819055506040518060400160405280601581526020017f68747470733a2f2f697066732e696f2f697066732f0000000000000000000000815250600e9081620001499190620003d2565b50620004b9565b600042905090565b600081519050919050565b7f4e487b7100000000000000000000000000000000000000000000000000000000600052604160045260246000fd5b7f4e487b7100000000000000000000000000000000000000000000000000000000600052602260045260246000fd5b60006002820490506001821680620001da57607f821691505b602082108103620001f057620001ef62000192565b5b50919050565b60008190508160005260206000209050919050565b60006020601f8301049050919050565b600082821b905092915050565b6000600883026200025a7fffffffffffffffffffffffffffffffffffffffffffffffffffffffffffffffff826200021b565b6200026686836200021b565b95508019841693508086168417925050509392505050565b6000819050919050565b6000819050919050565b6000620002b3620002ad620002a7846200027e565b62000288565b6200027e565b9050919050565b6000819050919050565b620002cf8362000292565b620002e7620002de82620002ba565b84845462000228565b825550505050565b600090565b620002fe620002ef565b6200030b818484620002c4565b505050565b5b81811015620003335762000327600082620002f4565b60018101905062000311565b5050565b601f82111562000382576200034c81620001f6565b62000357846200020b565b8101602085101562000367578190505b6200037f62000376856200020b565b83018262000310565b50505b505050565b600082821c905092915050565b6000620003a76000198460080262000387565b1980831691505092915050565b6000620003c2838362000394565b9150826002028217905092915050565b620003dd8262000158565b67ffffffffffffffff811115620003f957620003f862000163565b5b620004058254620001c1565b6200041282828562000337565b600060209050601f8311600181146200044a576000841562000435578287015190505b620004418582620003b4565b865550620004b1565b601f1984166200045a86620001f6565b60005b8281101562000484578489015182556001820191506020850194506020810190506200045d565b86831015620004a45784890151620004a0601f89168262000394565b8355505b6001600288020188555050505b505050505050565b613a0880620004c96000396000f3fe6080604052600436106101355760003560e01c80638a054ac2116100ab578063b88d4fde1161006f578063b88d4fde14610453578063bcfd94081461047c578063be6eba7e146104b9578063c87b56dd146104e2578063e985e9c51461051f578063ed2e39a71461055c57610135565b80638a054ac21461036e57806395d89b4114610399578063980c308d146103c4578063a22cb46514610401578063ac613a031461042a57610135565b806323b872dd116100fd57806323b872dd1461024957806329f0479c1461027257806342842e0e146102af5780636352211e146102d85780636b3dc9a41461031557806370a082311461033157610135565b806301ffc9a71461013a57806306fdde0314610177578063081812fc146101a2578063095ea7b3146101df578063107046bd14610208575b600080fd5b34801561014657600080fd5b50610161600480360381019061015c919061253f565b61059c565b60405161016e9190612587565b60405180910390f35b34801561018357600080fd5b5061018c61067e565b6040516101999190612632565b60405180910390f35b3480156101ae57600080fd5b506101c960048036038101906101c4919061268a565b610710565b6040516101d691906126f8565b60405180910390f35b3480156101eb57600080fd5b506102066004803603810190610201919061273f565b610756565b005b34801561021457600080fd5b5061022f600480360381019061022a919061268a565b61086d565b6040516102409594939291906127e3565b60405180910390f35b34801561025557600080fd5b50610270600480360381019061026b9190612844565b6109c0565b005b34801561027e57600080fd5b50610299600480360381019061029491906129cc565b610a20565b6040516102a69190612587565b60405180910390f35b3480156102bb57600080fd5b506102d660048036038101906102d19190612844565b610bd7565b005b3480156102e457600080fd5b506102ff60048036038101906102fa919061268a565b610bf7565b60405161030c91906126f8565b60405180910390f35b61032f600480360381019061032a9190612a57565b610c7d565b005b34801561033d57600080fd5b5061035860048036038101906103539190612a97565b610d2d565b6040516103659190612ac4565b60405180910390f35b34801561037a57600080fd5b50610383610de4565b6040516103909190612ac4565b60405180910390f35b3480156103a557600080fd5b506103ae610dea565b6040516103bb9190612632565b60405180910390f35b3480156103d057600080fd5b506103eb60048036038101906103e69190612adf565b610e7c565b6040516103f89190612587565b60405180910390f35b34801561040d57600080fd5b5061042860048036038101906104239190612b83565b611022565b005b34801561043657600080fd5b50610451600480360381019061044c9190612bc3565b611038565b005b34801561045f57600080fd5b5061047a60048036038101906104759190612cb7565b611281565b005b34801561048857600080fd5b506104a3600480360381019061049e9190612a97565b6112e3565b6040516104b09190612587565b60405180910390f35b3480156104c557600080fd5b506104e060048036038101906104db9190612a57565b61139d565b005b3480156104ee57600080fd5b506105096004803603810190610504919061268a565b61149d565b6040516105169190612632565b60405180910390f35b34801561052b57600080fd5b5061054660048036038101906105419190612d3a565b611505565b6040516105539190612587565b60405180910390f35b34801561056857600080fd5b50610583600480360381019061057e9190612a57565b611599565b6040516105939493929190612d7a565b60405180910390f35b60007f80ac58cd000000000000000000000000000000000000000000000000000000007bffffffffffffffffffffffffffffffffffffffffffffffffffffffff1916827bffffffffffffffffffffffffffffffffffffffffffffffffffffffff1916148061066757507f5b5e139f000000000000000000000000000000000000000000000000000000007bffffffffffffffffffffffffffffffffffffffffffffffffffffffff1916827bffffffffffffffffffffffffffffffffffffffffffffffffffffffff1916145b806106775750610676826116e6565b5b9050919050565b60606000805461068d90612dfc565b80601f01602080910402602001604051908101604052809291908181526020018280546106b990612dfc565b80156107065780601f106106db57610100808354040283529160200191610706565b820191906000526020600020905b8154815290600101906020018083116106e957829003601f168201915b5050505050905090565b600061071b82611750565b6004600083815260200190815260200160002060009054906101000a900473ffffffffffffffffffffffffffffffffffffffff169050919050565b600061076182610bf7565b90508073ffffffffffffffffffffffffffffffffffffffff168373ffffffffffffffffffffffffffffffffffffffff16036107d1576040517f08c379a00000000000000000000000000000000000000000000000000000000081526004016107c890612e9f565b60405180910390fd5b8073ffffffffffffffffffffffffffffffffffffffff166107f061179b565b73ffffffffffffffffffffffffffffffffffffffff16148061081f575061081e8161081961179b565b611505565b5b61085e576040517f08c379a000000000000000000000000000000000000000000000000000000000815260040161085590612f31565b60405180910390fd5b61086883836117a3565b505050565b600960205280600052604060002060009150905080600001549080600101805461089690612dfc565b80601f01602080910402602001604051908101604052809291908181526020018280546108c290612dfc565b801561090f5780601f106108e45761010080835404028352916020019161090f565b820191906000526020600020905b8154815290600101906020018083116108f257829003601f168201915b50505050509080600201805461092490612dfc565b80601f016020809104026020016040519081016040528092919081815260200182805461095090612dfc565b801561099d5780601f106109725761010080835404028352916020019161099d565b820191906000526020600020905b81548152906001019060200180831161098057829003601f168201915b5050505050908060040154908060050160009054906101000a900460ff16905085565b6109d16109cb61179b565b8261185c565b610a10576040517f08c379a0000000000000000000000000000000000000000000000000000000008152600401610a0790612fc3565b60405180910390fd5b610a1b8383836118f1565b505050565b6000600760003373ffffffffffffffffffffffffffffffffffffffff1673ffffffffffffffffffffffffffffffffffffffff16815260200190815260200160002060009054906101000a900460ff16610a7857600080fd5b6009600085815260200190815260200160002060050160009054906101000a900460ff16610aa557600080fd5b60096000858152602001908152602001600020600301600c60008681526020019081526020016000205490806001815401808255809150506001900390600052602060002001600090919091909150556040518060800160405280600c600087815260200190815260200160002054815260200185815260200184815260200183815250600a60008681526020019081526020016000206000600c600088815260200190815260200160002054815260200190815260200160002060008201518160000155602082015181600101556040820151816002019081610b89919061318f565b506060820151816003019081610b9f91906132bc565b50905050600c60008581526020019081526020016000206000815480929190610bc7906133bd565b9190505550600190509392505050565b610bf283838360405180602001604052806000815250611281565b505050565b600080610c0383611bea565b9050600073ffffffffffffffffffffffffffffffffffffffff168173ffffffffffffffffffffffffffffffffffffffff1603610c74576040517f08c379a0000000000000000000000000000000000000000000000000000000008152600401610c6b90613451565b60405180910390fd5b80915050919050565b600080341015610c8c57600080fd5b6000610c96611c27565b9050600064e8d4a510006009600087815260200190815260200160002060000154610cc19190613471565b905060006402540be400600a6000888152602001908152602001600020600087815260200190815260200160002060000154610cfd9190613471565b90506000838284610d0e91906134b3565b610d1891906134b3565b9050610d243382611c2f565b50505050505050565b60008073ffffffffffffffffffffffffffffffffffffffff168273ffffffffffffffffffffffffffffffffffffffff1603610d9d576040517f08c379a0000000000000000000000000000000000000000000000000000000008152600401610d9490613559565b60405180910390fd5b600360008373ffffffffffffffffffffffffffffffffffffffff1673ffffffffffffffffffffffffffffffffffffffff168152602001908152602001600020549050919050565b600d5481565b606060018054610df990612dfc565b80601f0160208091040260200160405190810160405280929190818152602001828054610e2590612dfc565b8015610e725780601f10610e4757610100808354040283529160200191610e72565b820191906000526020600020905b815481529060010190602001808311610e5557829003601f168201915b5050505050905090565b6000600760003373ffffffffffffffffffffffffffffffffffffffff1673ffffffffffffffffffffffffffffffffffffffff16815260200190815260200160002060009054906101000a900460ff16610ed457600080fd5b6040518060c00160405280600b5481526020018481526020018381526020016008805480602002602001604051908101604052809291908181526020018280548015610f3f57602002820191906000526020600020905b815481526020019060010190808311610f2b575b50505050508152602001600c6000600b5481526020019081526020016000205481526020016001151581525060096000600b548152602001908152602001600020600082015181600001556020820151816001019081610f9f919061318f565b506040820151816002019081610fb591906132bc565b506060820151816003019080519060200190610fd2929190612469565b506080820151816004015560a08201518160050160006101000a81548160ff021916908315150217905550905050600b6000815480929190611013906133bd565b91905055506001905092915050565b61103461102d61179b565b8383611e4c565b5050565b6000819050600073f8be55d705cb3ce9c38cc8f395c0640ec989989290506000737ceb23fd6bc0add59e62ac25578270cff1b9f61990506000732791bca1f2de4661ed88a30c99a7a9449aa84174905060008373ffffffffffffffffffffffffffffffffffffffff168673ffffffffffffffffffffffffffffffffffffffff16036110cd57678ac7230489e800009050611155565b8273ffffffffffffffffffffffffffffffffffffffff168673ffffffffffffffffffffffffffffffffffffffff160361111057678ac7230489e800009050611154565b8173ffffffffffffffffffffffffffffffffffffffff168673ffffffffffffffffffffffffffffffffffffffff160361114e57629896809050611153565b600080fd5b5b5b808573ffffffffffffffffffffffffffffffffffffffff166370a08231336040518263ffffffff1660e01b815260040161118f91906126f8565b602060405180830381865afa1580156111ac573d6000803e3d6000fd5b505050506040513d601f19601f820116820180604052508101906111d0919061358e565b10156111db57600080fd5b60006111e5611c27565b9050600064e8d4a51000600960008c8152602001908152602001600020600001546112109190613471565b905060006402540be400600a60008d815260200190815260200160002060008c81526020019081526020016000206000015461124c9190613471565b9050600083828461125d91906134b3565b61126791906134b3565b90506112733382611c2f565b505050505050505050505050565b61129261128c61179b565b8361185c565b6112d1576040517f08c379a00000000000000000000000000000000000000000000000000000000081526004016112c890612fc3565b60405180910390fd5b6112dd84848484611fb8565b50505050565b6000600660009054906101000a900473ffffffffffffffffffffffffffffffffffffffff1673ffffffffffffffffffffffffffffffffffffffff163373ffffffffffffffffffffffffffffffffffffffff161461133f57600080fd5b6001600760008473ffffffffffffffffffffffffffffffffffffffff1673ffffffffffffffffffffffffffffffffffffffff16815260200190815260200160002060006101000a81548160ff02191690831515021790559050919050565b600760003373ffffffffffffffffffffffffffffffffffffffff1673ffffffffffffffffffffffffffffffffffffffff16815260200190815260200160002060009054906101000a900460ff166113f357600080fd5b60006113fd611c27565b9050600064e8d4a5100060096000868152602001908152602001600020600001546114289190613471565b905060006402540be400600a60008781526020019081526020016000206000868152602001908152602001600020600001546114649190613471565b9050600083828461147591906134b3565b61147f91906134b3565b905061148b3382611c2f565b6114948161149d565b50505050505050565b60606114a882611750565b60006114b2612014565b905060008151116114d257604051806020016040528060008152506114fd565b806114dc84612051565b6040516020016114ed9291906135f7565b6040516020818303038152906040525b915050919050565b6000600560008473ffffffffffffffffffffffffffffffffffffffff1673ffffffffffffffffffffffffffffffffffffffff16815260200190815260200160002060008373ffffffffffffffffffffffffffffffffffffffff1673ffffffffffffffffffffffffffffffffffffffff16815260200190815260200160002060009054906101000a900460ff16905092915050565b600a602052816000526040600020602052806000526040600020600091509150508060000154908060010154908060020180546115d590612dfc565b80601f016020809104026020016040519081016040528092919081815260200182805461160190612dfc565b801561164e5780601f106116235761010080835404028352916020019161164e565b820191906000526020600020905b81548152906001019060200180831161163157829003601f168201915b50505050509080600301805461166390612dfc565b80601f016020809104026020016040519081016040528092919081815260200182805461168f90612dfc565b80156116dc5780601f106116b1576101008083540402835291602001916116dc565b820191906000526020600020905b8154815290600101906020018083116116bf57829003601f168201915b5050505050905084565b60007f01ffc9a7000000000000000000000000000000000000000000000000000000007bffffffffffffffffffffffffffffffffffffffffffffffffffffffff1916827bffffffffffffffffffffffffffffffffffffffffffffffffffffffff1916149050919050565b6117598161211f565b611798576040517f08c379a000000000000000000000000000000000000000000000000000000000815260040161178f90613451565b60405180910390fd5b50565b600033905090565b816004600083815260200190815260200160002060006101000a81548173ffffffffffffffffffffffffffffffffffffffff021916908373ffffffffffffffffffffffffffffffffffffffff160217905550808273ffffffffffffffffffffffffffffffffffffffff1661181683610bf7565b73ffffffffffffffffffffffffffffffffffffffff167f8c5be1e5ebec7d5bd14f71427d1e84f3dd0314c0f7b2291e5b200ac8c7c3b92560405160405180910390a45050565b60008061186883610bf7565b90508073ffffffffffffffffffffffffffffffffffffffff168473ffffffffffffffffffffffffffffffffffffffff1614806118aa57506118a98185611505565b5b806118e857508373ffffffffffffffffffffffffffffffffffffffff166118d084610710565b73ffffffffffffffffffffffffffffffffffffffff16145b91505092915050565b8273ffffffffffffffffffffffffffffffffffffffff1661191182610bf7565b73ffffffffffffffffffffffffffffffffffffffff1614611967576040517f08c379a000000000000000000000000000000000000000000000000000000000815260040161195e9061368d565b60405180910390fd5b600073ffffffffffffffffffffffffffffffffffffffff168273ffffffffffffffffffffffffffffffffffffffff16036119d6576040517f08c379a00000000000000000000000000000000000000000000000000000000081526004016119cd9061371f565b60405180910390fd5b6119e38383836001612160565b8273ffffffffffffffffffffffffffffffffffffffff16611a0382610bf7565b73ffffffffffffffffffffffffffffffffffffffff1614611a59576040517f08c379a0000000000000000000000000000000000000000000000000000000008152600401611a509061368d565b60405180910390fd5b6004600082815260200190815260200160002060006101000a81549073ffffffffffffffffffffffffffffffffffffffff02191690556001600360008573ffffffffffffffffffffffffffffffffffffffff1673ffffffffffffffffffffffffffffffffffffffff168152602001908152602001600020600082825403925050819055506001600360008473ffffffffffffffffffffffffffffffffffffffff1673ffffffffffffffffffffffffffffffffffffffff16815260200190815260200160002060008282540192505081905550816002600083815260200190815260200160002060006101000a81548173ffffffffffffffffffffffffffffffffffffffff021916908373ffffffffffffffffffffffffffffffffffffffff160217905550808273ffffffffffffffffffffffffffffffffffffffff168473ffffffffffffffffffffffffffffffffffffffff167fddf252ad1be2c89b69c2b068fc378daa952ba7f163c4a11628f55a4df523b3ef60405160405180910390a4611be58383836001612166565b505050565b60006002600083815260200190815260200160002060009054906101000a900473ffffffffffffffffffffffffffffffffffffffff169050919050565b600042905090565b600073ffffffffffffffffffffffffffffffffffffffff168273ffffffffffffffffffffffffffffffffffffffff1603611c9e576040517f08c379a0000000000000000000000000000000000000000000000000000000008152600401611c959061378b565b60405180910390fd5b611ca78161211f565b15611ce7576040517f08c379a0000000000000000000000000000000000000000000000000000000008152600401611cde906137f7565b60405180910390fd5b611cf5600083836001612160565b611cfe8161211f565b15611d3e576040517f08c379a0000000000000000000000000000000000000000000000000000000008152600401611d35906137f7565b60405180910390fd5b6001600360008473ffffffffffffffffffffffffffffffffffffffff1673ffffffffffffffffffffffffffffffffffffffff16815260200190815260200160002060008282540192505081905550816002600083815260200190815260200160002060006101000a81548173ffffffffffffffffffffffffffffffffffffffff021916908373ffffffffffffffffffffffffffffffffffffffff160217905550808273ffffffffffffffffffffffffffffffffffffffff16600073ffffffffffffffffffffffffffffffffffffffff167fddf252ad1be2c89b69c2b068fc378daa952ba7f163c4a11628f55a4df523b3ef60405160405180910390a4611e48600083836001612166565b5050565b8173ffffffffffffffffffffffffffffffffffffffff168373ffffffffffffffffffffffffffffffffffffffff1603611eba576040517f08c379a0000000000000000000000000000000000000000000000000000000008152600401611eb190613863565b60405180910390fd5b80600560008573ffffffffffffffffffffffffffffffffffffffff1673ffffffffffffffffffffffffffffffffffffffff16815260200190815260200160002060008473ffffffffffffffffffffffffffffffffffffffff1673ffffffffffffffffffffffffffffffffffffffff16815260200190815260200160002060006101000a81548160ff0219169083151502179055508173ffffffffffffffffffffffffffffffffffffffff168373ffffffffffffffffffffffffffffffffffffffff167f17307eab39ab6107e8899845ad3d59bd9653f200f220920489ca2b5937696c3183604051611fab9190612587565b60405180910390a3505050565b611fc38484846118f1565b611fcf8484848461216c565b61200e576040517f08c379a0000000000000000000000000000000000000000000000000000000008152600401612005906138f5565b60405180910390fd5b50505050565b60606040518060400160405280602081526020017f68747470733a2f2f697066732e696f2f697066732f666f6c6465722f3f69643a815250905090565b606060006001612060846122f3565b01905060008167ffffffffffffffff81111561207f5761207e6128a1565b5b6040519080825280601f01601f1916602001820160405280156120b15781602001600182028036833780820191505090505b509050600082602001820190505b600115612114578080600190039150507f3031323334353637383961626364656600000000000000000000000000000000600a86061a8153600a858161210857612107613915565b5b049450600085036120bf575b819350505050919050565b60008073ffffffffffffffffffffffffffffffffffffffff1661214183611bea565b73ffffffffffffffffffffffffffffffffffffffff1614159050919050565b50505050565b50505050565b600061218d8473ffffffffffffffffffffffffffffffffffffffff16612446565b156122e6578373ffffffffffffffffffffffffffffffffffffffff1663150b7a026121b661179b565b8786866040518563ffffffff1660e01b81526004016121d89493929190613944565b6020604051808303816000875af192505050801561221457506040513d601f19601f8201168201806040525081019061221191906139a5565b60015b612296573d8060008114612244576040519150601f19603f3d011682016040523d82523d6000602084013e612249565b606091505b50600081510361228e576040517f08c379a0000000000000000000000000000000000000000000000000000000008152600401612285906138f5565b60405180910390fd5b805181602001fd5b63150b7a0260e01b7bffffffffffffffffffffffffffffffffffffffffffffffffffffffff1916817bffffffffffffffffffffffffffffffffffffffffffffffffffffffff1916149150506122eb565b600190505b949350505050565b600080600090507a184f03e93ff9f4daa797ed6e38ed64bf6a1f0100000000000000008310612351577a184f03e93ff9f4daa797ed6e38ed64bf6a1f010000000000000000838161234757612346613915565b5b0492506040810190505b6d04ee2d6d415b85acef8100000000831061238e576d04ee2d6d415b85acef8100000000838161238457612383613915565b5b0492506020810190505b662386f26fc1000083106123bd57662386f26fc1000083816123b3576123b2613915565b5b0492506010810190505b6305f5e10083106123e6576305f5e10083816123dc576123db613915565b5b0492506008810190505b612710831061240b57612710838161240157612400613915565b5b0492506004810190505b6064831061242e576064838161242457612423613915565b5b0492506002810190505b600a831061243d576001810190505b80915050919050565b6000808273ffffffffffffffffffffffffffffffffffffffff163b119050919050565b8280548282559060005260206000209081019282156124a5579160200282015b828111156124a4578251825591602001919060010190612489565b5b5090506124b291906124b6565b5090565b5b808211156124cf5760008160009055506001016124b7565b5090565b6000604051905090565b600080fd5b600080fd5b60007fffffffff0000000000000000000000000000000000000000000000000000000082169050919050565b61251c816124e7565b811461252757600080fd5b50565b60008135905061253981612513565b92915050565b600060208284031215612555576125546124dd565b5b60006125638482850161252a565b91505092915050565b60008115159050919050565b6125818161256c565b82525050565b600060208201905061259c6000830184612578565b92915050565b600081519050919050565b600082825260208201905092915050565b60005b838110156125dc5780820151818401526020810190506125c1565b60008484015250505050565b6000601f19601f8301169050919050565b6000612604826125a2565b61260e81856125ad565b935061261e8185602086016125be565b612627816125e8565b840191505092915050565b6000602082019050818103600083015261264c81846125f9565b905092915050565b6000819050919050565b61266781612654565b811461267257600080fd5b50565b6000813590506126848161265e565b92915050565b6000602082840312156126a05761269f6124dd565b5b60006126ae84828501612675565b91505092915050565b600073ffffffffffffffffffffffffffffffffffffffff82169050919050565b60006126e2826126b7565b9050919050565b6126f2816126d7565b82525050565b600060208201905061270d60008301846126e9565b92915050565b61271c816126d7565b811461272757600080fd5b50565b60008135905061273981612713565b92915050565b60008060408385031215612756576127556124dd565b5b60006127648582860161272a565b925050602061277585828601612675565b9150509250929050565b61278881612654565b82525050565b600081519050919050565b600082825260208201905092915050565b60006127b58261278e565b6127bf8185612799565b93506127cf8185602086016125be565b6127d8816125e8565b840191505092915050565b600060a0820190506127f8600083018861277f565b818103602083015261280a81876125f9565b9050818103604083015261281e81866127aa565b905061282d606083018561277f565b61283a6080830184612578565b9695505050505050565b60008060006060848603121561285d5761285c6124dd565b5b600061286b8682870161272a565b935050602061287c8682870161272a565b925050604061288d86828701612675565b9150509250925092565b600080fd5b600080fd5b7f4e487b7100000000000000000000000000000000000000000000000000000000600052604160045260246000fd5b6128d9826125e8565b810181811067ffffffffffffffff821117156128f8576128f76128a1565b5b80604052505050565b600061290b6124d3565b905061291782826128d0565b919050565b600067ffffffffffffffff821115612937576129366128a1565b5b612940826125e8565b9050602081019050919050565b82818337600083830152505050565b600061296f61296a8461291c565b612901565b90508281526020810184848401111561298b5761298a61289c565b5b61299684828561294d565b509392505050565b600082601f8301126129b3576129b2612897565b5b81356129c384826020860161295c565b91505092915050565b6000806000606084860312156129e5576129e46124dd565b5b60006129f386828701612675565b935050602084013567ffffffffffffffff811115612a1457612a136124e2565b5b612a208682870161299e565b925050604084013567ffffffffffffffff811115612a4157612a406124e2565b5b612a4d8682870161299e565b9150509250925092565b60008060408385031215612a6e57612a6d6124dd565b5b6000612a7c85828601612675565b9250506020612a8d85828601612675565b9150509250929050565b600060208284031215612aad57612aac6124dd565b5b6000612abb8482850161272a565b91505092915050565b6000602082019050612ad9600083018461277f565b92915050565b60008060408385031215612af657612af56124dd565b5b600083013567ffffffffffffffff811115612b1457612b136124e2565b5b612b208582860161299e565b925050602083013567ffffffffffffffff811115612b4157612b406124e2565b5b612b4d8582860161299e565b9150509250929050565b612b608161256c565b8114612b6b57600080fd5b50565b600081359050612b7d81612b57565b92915050565b60008060408385031215612b9a57612b996124dd565b5b6000612ba88582860161272a565b9250506020612bb985828601612b6e565b9150509250929050565b600080600060608486031215612bdc57612bdb6124dd565b5b6000612bea86828701612675565b9350506020612bfb86828701612675565b9250506040612c0c8682870161272a565b9150509250925092565b600067ffffffffffffffff821115612c3157612c306128a1565b5b612c3a826125e8565b9050602081019050919050565b6000612c5a612c5584612c16565b612901565b905082815260208101848484011115612c7657612c7561289c565b5b612c8184828561294d565b509392505050565b600082601f830112612c9e57612c9d612897565b5b8135612cae848260208601612c47565b91505092915050565b60008060008060808587031215612cd157612cd06124dd565b5b6000612cdf8782880161272a565b9450506020612cf08782880161272a565b9350506040612d0187828801612675565b925050606085013567ffffffffffffffff811115612d2257612d216124e2565b5b612d2e87828801612c89565b91505092959194509250565b60008060408385031215612d5157612d506124dd565b5b6000612d5f8582860161272a565b9250506020612d708582860161272a565b9150509250929050565b6000608082019050612d8f600083018761277f565b612d9c602083018661277f565b8181036040830152612dae81856125f9565b90508181036060830152612dc281846127aa565b905095945050505050565b7f4e487b7100000000000000000000000000000000000000000000000000000000600052602260045260246000fd5b60006002820490506001821680612e1457607f821691505b602082108103612e2757612e26612dcd565b5b50919050565b7f4552433732313a20617070726f76616c20746f2063757272656e74206f776e6560008201527f7200000000000000000000000000000000000000000000000000000000000000602082015250565b6000612e896021836125ad565b9150612e9482612e2d565b604082019050919050565b60006020820190508181036000830152612eb881612e7c565b9050919050565b7f4552433732313a20617070726f76652063616c6c6572206973206e6f7420746f60008201527f6b656e206f776e6572206f7220617070726f76656420666f7220616c6c000000602082015250565b6000612f1b603d836125ad565b9150612f2682612ebf565b604082019050919050565b60006020820190508181036000830152612f4a81612f0e565b9050919050565b7f4552433732313a2063616c6c6572206973206e6f7420746f6b656e206f776e6560008201527f72206f7220617070726f76656400000000000000000000000000000000000000602082015250565b6000612fad602d836125ad565b9150612fb882612f51565b604082019050919050565b60006020820190508181036000830152612fdc81612fa0565b9050919050565b60008190508160005260206000209050919050565b60006020601f8301049050919050565b600082821b905092915050565b6000600883026130457fffffffffffffffffffffffffffffffffffffffffffffffffffffffffffffffff82613008565b61304f8683613008565b95508019841693508086168417925050509392505050565b6000819050919050565b600061308c61308761308284612654565b613067565b612654565b9050919050565b6000819050919050565b6130a683613071565b6130ba6130b282613093565b848454613015565b825550505050565b600090565b6130cf6130c2565b6130da81848461309d565b505050565b5b818110156130fe576130f36000826130c7565b6001810190506130e0565b5050565b601f8211156131435761311481612fe3565b61311d84612ff8565b8101602085101561312c578190505b61314061313885612ff8565b8301826130df565b50505b505050565b600082821c905092915050565b600061316660001984600802613148565b1980831691505092915050565b600061317f8383613155565b9150826002028217905092915050565b613198826125a2565b67ffffffffffffffff8111156131b1576131b06128a1565b5b6131bb8254612dfc565b6131c6828285613102565b600060209050601f8311600181146131f957600084156131e7578287015190505b6131f18582613173565b865550613259565b601f19841661320786612fe3565b60005b8281101561322f5784890151825560018201915060208501945060208101905061320a565b8683101561324c5784890151613248601f891682613155565b8355505b6001600288020188555050505b505050505050565b60008190508160005260206000209050919050565b601f8211156132b75761328881613261565b61329184612ff8565b810160208510156132a0578190505b6132b46132ac85612ff8565b8301826130df565b50505b505050565b6132c58261278e565b67ffffffffffffffff8111156132de576132dd6128a1565b5b6132e88254612dfc565b6132f3828285613276565b600060209050601f8311600181146133265760008415613314578287015190505b61331e8582613173565b865550613386565b601f19841661333486613261565b60005b8281101561335c57848901518255600182019150602085019450602081019050613337565b868310156133795784890151613375601f891682613155565b8355505b6001600288020188555050505b505050505050565b7f4e487b7100000000000000000000000000000000000000000000000000000000600052601160045260246000fd5b60006133c882612654565b91507fffffffffffffffffffffffffffffffffffffffffffffffffffffffffffffffff82036133fa576133f961338e565b5b600182019050919050565b7f4552433732313a20696e76616c696420746f6b656e2049440000000000000000600082015250565b600061343b6018836125ad565b915061344682613405565b602082019050919050565b6000602082019050818103600083015261346a8161342e565b9050919050565b600061347c82612654565b915061348783612654565b925082820261349581612654565b915082820484148315176134ac576134ab61338e565b5b5092915050565b60006134be82612654565b91506134c983612654565b92508282019050808211156134e1576134e061338e565b5b92915050565b7f4552433732313a2061646472657373207a65726f206973206e6f74206120766160008201527f6c6964206f776e65720000000000000000000000000000000000000000000000602082015250565b60006135436029836125ad565b915061354e826134e7565b604082019050919050565b6000602082019050818103600083015261357281613536565b9050919050565b6000815190506135888161265e565b92915050565b6000602082840312156135a4576135a36124dd565b5b60006135b284828501613579565b91505092915050565b600081905092915050565b60006135d1826125a2565b6135db81856135bb565b93506135eb8185602086016125be565b80840191505092915050565b600061360382856135c6565b915061360f82846135c6565b91508190509392505050565b7f4552433732313a207472616e736665722066726f6d20696e636f72726563742060008201527f6f776e6572000000000000000000000000000000000000000000000000000000602082015250565b60006136776025836125ad565b91506136828261361b565b604082019050919050565b600060208201905081810360008301526136a68161366a565b9050919050565b7f4552433732313a207472616e7366657220746f20746865207a65726f2061646460008201527f7265737300000000000000000000000000000000000000000000000000000000602082015250565b60006137096024836125ad565b9150613714826136ad565b604082019050919050565b60006020820190508181036000830152613738816136fc565b9050919050565b7f4552433732313a206d696e7420746f20746865207a65726f2061646472657373600082015250565b60006137756020836125ad565b91506137808261373f565b602082019050919050565b600060208201905081810360008301526137a481613768565b9050919050565b7f4552433732313a20746f6b656e20616c7265616479206d696e74656400000000600082015250565b60006137e1601c836125ad565b91506137ec826137ab565b602082019050919050565b60006020820190508181036000830152613810816137d4565b9050919050565b7f4552433732313a20617070726f766520746f2063616c6c657200000000000000600082015250565b600061384d6019836125ad565b915061385882613817565b602082019050919050565b6000602082019050818103600083015261387c81613840565b9050919050565b7f4552433732313a207472616e7366657220746f206e6f6e20455243373231526560008201527f63656976657220696d706c656d656e7465720000000000000000000000000000602082015250565b60006138df6032836125ad565b91506138ea82613883565b604082019050919050565b6000602082019050818103600083015261390e816138d2565b9050919050565b7f4e487b7100000000000000000000000000000000000000000000000000000000600052601260045260246000fd5b600060808201905061395960008301876126e9565b61396660208301866126e9565b613973604083018561277f565b818103606083015261398581846127aa565b905095945050505050565b60008151905061399f81612513565b92915050565b6000602082840312156139bb576139ba6124dd565b5b60006139c984828501613990565b9150509291505056fea264697066735822122037584c9216a080aeb86c53bc9db4ade4dd9254ccecd54c43c4ef19d70763f41164736f6c63430008110033",
  "immutableReferences": {},
  "source": "// SPDX-License-Identifier: MIT\n\npragma solidity ^0.8.0;\n\nimport \"@openzeppelin/contracts/token/ERC20/ERC20.sol\";\nimport \"@openzeppelin/contracts/token/ERC721/ERC721.sol\";\n\ncontract tCO2 is ERC721 {\n    \n    address private admin;\n    mapping (address => bool) private isAdmin;\n    uint[] private mt;\n    struct Project{\n        uint id;\n        string name;\n        bytes desc;\n        uint[] topics;\n        uint t;\n        bool a;\n    }\n    mapping(uint => Project) public projects;\n    struct Topic{\n        uint id;\n        uint pid;\n        string name;\n        bytes desc;\n    }\n    mapping(uint => mapping(uint => Topic)) public topics;\n    uint private p;\n    mapping(uint => uint) private t;\n    uint public d;\n\n    string private diasbase;\n    modifier onlyA() {\n        if(msg.sender != admin) revert();\n        _;\n    }\n    modifier isA() {\n        if(!isAdmin[msg.sender]) revert();\n        _;\n    }\n    constructor() ERC721(\"Tokenized Carbon Asset\",\"tCO2\") {\n        admin = msg.sender;\n        d = makeStamp();\n        p = 1;\n\n        diasbase = \"https://ipfs.io/ipfs/\";\n    }\n    function makeA(address _a) external onlyA returns(bool){\n        return isAdmin[_a] = true;\n    }\n    function addProject(string memory _name,string memory _desc) external isA returns(bool){\n        projects[p] = Project(p,_name,bytes(_desc),mt,t[p],true);\n        p++;\n        return true;\n    }\n    function addTopic(uint _p,string memory _name,string memory _desc) external isA returns(bool){\n        if(!projects[_p].a) revert();\n        projects[_p].topics.push(t[_p]);\n        topics[_p][t[_p]] = Topic(t[_p],_p,_name,bytes(_desc));\n        t[_p]++;\n        return true;\n    }\n    \n    function coinMint(uint _project, uint topic) external payable {\n        // get usd price of matic\n        // calculate on base denomination\n        uint price;\n        if(msg.value < price) revert();\n        uint it = makeStamp();\n        uint py = projects[_project].id * 10 ** 12;\n        uint ty = topics[_project][topic].id * 10 ** 10;\n        uint id =  py + ty + it; \n        _mint(msg.sender,id);\n    }\n\n    function tokenMint(uint _project, uint _topic,address _erc) external {\n        ERC20 token = ERC20(_erc);\n        address xco2 = 0xF8be55D705cB3ce9c38cc8F395c0640ec9899892;\n        address weth = 0x7ceB23fD6bC0adD59E62ac25578270cFf1b9f619; // 18 digits\n        address usdc = 0x2791Bca1f2de4661ED88A30C99A7a9449Aa84174; // 6 digit currency\n        uint price;\n        if(_erc == xco2) {price = 10*10**18;} // fixed price\n        else if(_erc == weth) {\n            // get usd price of weth\n            // calculate on base denomination\n            price = 10*10**18;\n            }\n        else if(_erc == usdc) {\n            // get usd price of matic\n            // calculate on base denomination\n            price = 10*10**6;\n            }\n        else revert();\n        if(token.balanceOf(msg.sender) < price) revert(); \n        uint it = makeStamp();\n        uint py = projects[_project].id * 10 ** 12;\n        uint ty = topics[_project][_topic].id * 10 ** 10;\n        uint id =  py + ty + it; \n        _mint(msg.sender,id);\n    } \n\n    function aMint(uint _project, uint topic) external isA {\n        uint it = makeStamp();\n        uint py = projects[_project].id * 10 ** 12;\n        uint ty = topics[_project][topic].id * 10 ** 10;\n        uint id =  py + ty + it; \n        _mint(msg.sender,id);\n        tokenURI(id);\n    } \n\n    function _baseURI() internal view virtual override returns (string memory) {\n        return \"https://ipfs.io/ipfs/folder/?id:\";\n    }\n\n    function makeStamp() internal view returns(uint){\n        return block.timestamp;\n    }\n}",
  "sourcePath": "/Users/iii6/Documents/GitHub/iii6v1/contracts/tCO2.sol",
  "compiler": {
    "name": "solc",
    "version": "0.8.17+commit.8df45f5f.Emscripten.clang"
  },
  "schemaVersion": "3.4.8",
  "updatedAt": "2023-10-05T09:11:29.512Z",
  "devdoc": {
    "kind": "dev",
    "methods": {
      "approve(address,uint256)": {
        "details": "See {IERC721-approve}."
      },
      "balanceOf(address)": {
        "details": "See {IERC721-balanceOf}."
      },
      "getApproved(uint256)": {
        "details": "See {IERC721-getApproved}."
      },
      "isApprovedForAll(address,address)": {
        "details": "See {IERC721-isApprovedForAll}."
      },
      "name()": {
        "details": "See {IERC721Metadata-name}."
      },
      "ownerOf(uint256)": {
        "details": "See {IERC721-ownerOf}."
      },
      "safeTransferFrom(address,address,uint256)": {
        "details": "See {IERC721-safeTransferFrom}."
      },
      "safeTransferFrom(address,address,uint256,bytes)": {
        "details": "See {IERC721-safeTransferFrom}."
      },
      "setApprovalForAll(address,bool)": {
        "details": "See {IERC721-setApprovalForAll}."
      },
      "supportsInterface(bytes4)": {
        "details": "See {IERC165-supportsInterface}."
      },
      "symbol()": {
        "details": "See {IERC721Metadata-symbol}."
      },
      "tokenURI(uint256)": {
        "details": "See {IERC721Metadata-tokenURI}."
      },
      "transferFrom(address,address,uint256)": {
        "details": "See {IERC721-transferFrom}."
      }
    },
    "version": 1
  },
  "userdoc": {
    "kind": "user",
    "methods": {},
    "version": 1
  }
}